:020000040000fa
:080000000002040000000000f2
:020000040000fa
:04000800ae03000043
:020000040000fa
:04000c00ae0300003f
:020000040000fa
:04001000ae0300003b
:020000040000fa
:04001400ae03000037
:020000040000fa
:04001800ae03000033
:020000040000fa
:04001c00ae0300002f
:020000040000fa
:04002000ae0300002b
:020000040000fa
:04002400ae03000027
:020000040000fa
:04002800ae03000023
:020000040000fa
:04002c00ae0300001f
:020000040000fa
:04003000ae0300001b
:020000040000fa
:04003400ae03000017
:020000040000fa
:04003800ae03000013
:020000040000fa
:04003c00ae0300000f
:020000040000fa
:04004000ae0300000b
:020000040000fa
:04004400ae03000007
:020000040000fa
:04004800d8020000da
:020000040000fa
:04004c00ae030000ff
:020000040000fa
:04005000ae030000fb
:020000040000fa
:04005400ae030000f7
:020000040000fa
:04005800ae030000f3
:020000040000fa
:04005c00ae030000ef
:020000040000fa
:04006000ae030000eb
:020000040000fa
:04006400ae030000e7
:020000040000fa
:04006800ae030000e3
:020000040000fa
:04006c00ae030000df
:020000040000fa
:04007000ae030000db
:020000040000fa
:04007400280300005d
:020000040000fa
:04007800ae030000d3
:020000040000fa
:04007c00ae030000cf
:020000040000fa
:04008000ae030000cb
:020000040000fa
:04008400ae030000c7
:020000040000fa
:04008800ae030000c3
:020000040000fa
:04008c00ae030000bf
:020000040000fa
:04009000ae030000bb
:020000040000fa
:04009400ae030000b7
:020000040000fa
:040098000003000061
:020000040000fa
:04009c00ae030000af
:020000040000fa
:0400a000ae030000ab
:020000040000fa
:0400a400ae030000a7
:020000040000fa
:0400a800ae030000a3
:020000040000fa
:0400ac00ae0300009f
:020000040000fa
:0400b000ae0300009b
:020000040000fa
:0400b400ae03000097
:020000040000fa
:0400b800ae03000093
:020000040000fa
:0400bc00ae0300008f
:020000040000fa
:0400c000ae0300008b
:020000040000fa
:0400c400ae03000087
:020000040000fa
:0400c800ae03000083
:020000040000fa
:0400cc00ae0300007f
:020000040000fa
:0400d000ae0300007b
:020000040000fa
:0400d400ae03000077
:020000040000fa
:0400d800ae03000073
:020000040000fa
:0400dc00ae0300006f
:020000040000fa
:0400e000ae0300006b
:020000040000fa
:0400e400ae03000067
:020000040000fa
:0400e800ae03000063
:020000040000fa
:0400ec00ae0300005f
:020000040000fa
:0400f000ae0300005b
:020000040000fa
:0400f400ae03000057
:020000040000fa
:0400f800ae03000053
:020000040000fa
:0400fc00ae0300004f
:020000040000fa
:04010000ae0300004a
:020000040000fa
:04010400ae03000046
:020000040000fa
:04010800ae03000042
:020000040000fa
:04010c00ae0300003e
:020000040000fa
:04011000ae0300003a
:020000040000fa
:04011400ae03000036
:020000040000fa
:04011800ae03000032
:020000040000fa
:04011c00ae0300002e
:020000040000fa
:04012000ae0300002a
:020000040000fa
:04012400ae03000026
:020000040000fa
:04012800ae03000022
:020000040000fa
:04012c00ae0300001e
:020000040000fa
:04013000ae0300001a
:020000040000fa
:04013400ae03000016
:020000040000fa
:04020800ae03000041
:020000040000fa
:04020c00ae0300003d
:020000040000fa
:04021000ae03000039
:020000040000fa
:04021400ae03000035
:020000040000fa
:04021800ae03000031
:020000040000fa
:04021c00ae0300002d
:020000040000fa
:04022000ae03000029
:020000040000fa
:04022400ae03000025
:020000040000fa
:04022800ae03000021
:020000040000fa
:04022c00ae0300001d
:020000040000fa
:04023000ae03000019
:020000040000fa
:04023400ae03000015
:020000040000fa
:04023800ae03000011
:020000040000fa
:04023c00ae0300000d
:020000040000fa
:04024000ae03000009
:020000040000fa
:04024400ae03000005
:020000040000fa
:04024800ae03000001
:020000040000fa
:04024c00ae030000fd
:020000040000fa
:04025000ae030000f9
:020000040000fa
:04025400ae030000f5
:020000040000fa
:04025800ae030000f1
:020000040000fa
:04025c00ae030000ed
:020000040000fa
:04026000ae030000e9
:020000040000fa
:04026400ae030000e5
:020000040000fa
:04026800ae030000e1
:020000040000fa
:04026c00ae030000dd
:020000040000fa
:04027000ae030000d9
:020000040000fa
:04027400ae030000d5
:020000040000fa
:04027800ae030000d1
:020000040000fa
:04027c00ae030000cd
:020000040000fa
:04028000ae030000c9
:020000040000fa
:04028400ae030000c5
:020000040000fa
:04028800ae030000c1
:020000040000fa
:04028c00ae030000bd
:020000040000fa
:04029000ae030000b9
:020000040000fa
:04029400ae030000b5
:020000040000fa
:04029800ae030000b1
:020000040000fa
:04029c00ae030000ad
:020000040000fa
:0402a000ae030000a9
:020000040000fa
:0402a400ae030000a5
:020000040000fa
:0402a800ae030000a1
:020000040000fa
:0402ac00ae0300009d
:020000040000fa
:0402b000ae03000099
:020000040000fa
:0402b400ae03000095
:020000040000fa
:0402b800ae03000091
:020000040000fa
:0402bc00ae0300008d
:020000040000fa
:0402c000ae03000089
:020000040000fa
:0402c400ae03000085
:020000040000fa
:0402c800ae03000081
:020000040000fa
:0402cc00ae0300007d
:020000040000fa
:0402d000ae03000079
:020000040000fa
:0402d400ae03000075
:020000040000fa
:0402d800ae03000071
:020000040000fa
:0402dc00ae0300006d
:020000040000fa
:0402e000ae03000069
:020000040000fa
:0402e400ae03000065
:020000040000fa
:0402e800ae03000061
:020000040000fa
:0402ec00ae0300005d
:020000040000fa
:0402f000ae03000059
:020000040000fa
:0402f400ae03000055
:020000040000fa
:0402f800ae03000051
:020000040000fa
:0402fc00ae0300004d
:020000040000fa
:04030000ae03000048
:020000040000fa
:04030400ae03000044
:020000040000fa
:04030800ae03000040
:020000040000fa
:04030c00ae0300003c
:020000040000fa
:04031000ae03000038
:020000040000fa
:04031400ae03000034
:020000040000fa
:04031800ae03000030
:020000040000fa
:04031c00ae0300002c
:020000040000fa
:04032000ae03000028
:020000040000fa
:04032400ae03000024
:020000040000fa
:04032800ae03000020
:020000040000fa
:04032c00ae0300001c
:020000040000fa
:04033000ae03000018
:020000040000fa
:04033400ae03000014
:020000040000fa
:100400002f8020000e7f22000e01880000000000d7
:10041000000020000000e000020032000001200087
:10042000200288000e00070040512000010020003b
:10043000810f700001003200220007000000200040
:100440000000e00002003200000002000000000096
:1004500088040200000000000040da000000fe00f6
:100460004440a900000020000000e000030032002a
:1004700000002000a00188004440a8000000060001
:10048000f03fb1000180b10006003500ee03090025
:1004900000000000403fb1000180b100fbff3d00c3
:1004a0001000b000203fb0000200350000800900bd
:1004b00000000000000006008a1f78008b1f7800f3
:1004c0000000060091018800800478000000eb0025
:1004d0001a003700e284440032a0b4009905ba0043
:1004e000e284440032a0b4009906ba00e2844400d9
:1004f00032a0b4000006eb00476fde00fd07b2003b
:10050000636ce10003003a00ebff07000000eb0022
:100510000a003700606ce10004003a00005deb0067
:100520008b05e900fdff3e00040037006168e10033
:10053000010032000086eb000b00070019c7ba006b
:100540001905ba000e04e00003003a000a00e000ba
:10055000e0ff3a0000000600fe07b2009e0188009e
:100560008a047800f5ff3700395dba008b05e90091
:100570000c003200295dba008b05e900080032004a
:100580000c00e00003003a00e284440032a0b40012
:10059000f5ff370019ddba008b05e900faff3a00d4
:1005a0008904e800e184440032a0b40000000600a1
:1005b0003600f800809fbe00829fbe00849fbe0070
:1005c000869fbe000000fa00c4c2a900c4a2a90010
:1005d000c4e2a80000402200410f2000a8ff07004d
:1005e0008500a9000080fa004f03be004f02be0044
:1005f0004f01be004f00be003600f900004006006b
:100600003600f800809fbe00829fbe00849fbe001f
:10061000869fbe000000fa00c4a2a900c4e2a9009f
:10062000c4c2a80000902000d103200094ff07005e
:100630008780a9000080fa004f03be004f02be0071
:100640004f01be004f00be003600f900004006001a
:10065000809fbe000000fa00a11680000004200068
:10066000008060000000e0000f003a0041058000bb
:1006700080ff2f00008060006000b300400588000c
:100680009105800080ff2f00008060005000b300c3
:100690009005880011028000f0f12f0000806000ba
:1006a0000050a00010028800a11680000008200061
:1006b000008060000000e00010003a00410580006a
:1006c00080ff2f00008060006000b30040058800bc
:1006d00011028000f0f12f0080806000000a2000ed
:1006e00001007000100288009105800080ff2f003b
:1006f000008060000000a00090058800a116800026
:1007000000002200008060000000e0000f003a00be
:100710009105800080ff2f00008060006000b30022
:10072000900588004105800080ff2f000080600058
:100730005000b3004005880011028000f0f12f0046
:10074000008060000050a000100288008660a900b0
:100750000080fa004f00be00004006000040da00b2
:040760000000fe0097
:020000040000fa
:100764000000fa00f03b280000308800f03f200031
:100774001030880010002000603088000426ef004c
:1007840000032800200888000021ef00000000007a
:1007940001088000f07c2000808f5000fcff3600b0
:1007a4000426ef0080032000403088000021ef0081
:1007b4000000000000088000e20f5000fdff36003a
:1007c400c0002000403088000021ef00000000003d
:1007d40000088000e20f5000fdff360010002000ea
:1007e400403088000021ef00000000000108800074
:1007f40030062000808f5000fcff3600600020008f
:10080400403088000021ef00000000000108800053
:1008140030062000808f5000fcff36000080fa0074
:10082400000006000400fa00100798000000000011
:100834001130800000002800008060000000e0000b
:10084400fbff3a001e0090002030880040308000fa
:10085400000f780000000000113080000000280024
:10086400008060000000e000fbff3a0040308000a0
:10087400004078000080fa00000006000400fa003e
:10088400000f780021479800000000000000eb00f2
:10089400e4ff07000004e000fcff35000000000056
:1008a4001130800000002800008060000000e0009b
:1008b400fbff3a001e007800203088002e40900094
:1008c4000000fb00403088000080fa0000000600b1
:1008d4000200fa00000f7800060037001e007800be
:1008e400104078001e0fe8008040780010002000bf
:1008f400e2ff07001e007800104078000004e000ca
:10090400f6ff3a000080fa00000006000000fa003a
:100914000500070019000700c4c2a900c4e2a90029
:10092400c4a2a800fcff37000000fa000080eb001e
:1009340060198800d2c2a800d2e2a800d3a2a800fd
:10094400d2e2a800c0a2a900c0c2a900c0e2a900c6
:1009540061e0a8006200a8006260a8006105800050
:100964000000270001007000600588009660a80060
:100974008660a9000080fa00000006000000fa006a
:100984001021ef001221ef000a21ef000621ef00f1
:10099400100020007008880080842e006008880001
:1009a4004105800080ff2f00008060000000a0004f
:1009b400400588008500a9009500a8001061a800e2
:1009c4008108800000032000010070008008880076
:1009d4001021a90011e1a8002021ef001821ef0047
:1009e40020a12700e00888009105800080ff2f00e7
:1009f400008060000000a000900588008780a900a6
:100a04009780a80001098000000320000100700005
:100a1400000988001021a90021e1a8000080fa0043
:040a240000000600c8
:020000040000fa
:100a280000080000020000000000000000000000b4
:020000040000fa
:020000040002f8
:04aff800bd7b00001d
:020000040000fa
:020000040002f8
:04affc007fbf000013
:00000001FF
